:020000040800F2
:10000000380C0020D5000008491600084F130008DE
:1000100000000000000000000000000000000000E0
:10002000000000000000000000000000931600081F
:10003000000000000000000091160008951600085E
:10004000E7000008E7000008E7000008E7000008F4
:10005000E7000008E7000008E7000008E7000008E4
:10006000E7000008E7000008E7000008E7000008D4
:10007000E7000008E700000800000000E7000008B3
:1000800000000000E7000008000000000000000081
:10009000E700000800000000E7000008E700000893
:1000A000E7000008E7000008E7000008E700000894
:1000B000E7000008E7000008E7000008E700000884
:1000C0000348854600F000F9004800474D45000808
:1000D000380C00200448804704480047FEE7FEE74C
:1000E000FEE7FEE7FEE7FEE70D170008C100000887
:1000F00030B50B46014600202022012409E00D46C0
:10010000D5409D4205D31D469540491B2546954047
:1001100040191546521E002DF1DC30BD70B500248B
:100120002546002801DA01244042002901DA012590
:100130004942FFF7DDFFAC4200D04042002C00D026
:10014000494270BDF0B51FB40646002082B0054696
:100150004024019100901BE0019922460F46304651
:1001600000F0A1F8049A059B801A994110D310461B
:100170001946224600F087F8361A8F410197224629
:1001800001200021009F00F07EF838184D410090BA
:100190002046641E0028DFDC019B00982946324679
:1001A00007B0F0BDF0B51FB486B0002000900190FC
:1001B00002900698069980B204900798090C0204F0
:1001C0000014114307900027089D099806913E46A8
:1001D0003C4603900398A9B20204000C03900498D3
:1001E0002D0C154348430021224600F04CF8C71956
:1001F000714110340E46402CECDB3846029A00F078
:1002000042F8009A019B8018009059410298019190
:10021000103002904028CCDB00980BB0F0BD0346B4
:100220000B439B0703D009E008C9121F08C0042A2A
:10023000FAD203E00B780370401C491C521EF9D21D
:100240007047D2B201E00270401C491EFBD27047D9
:100250000022F6E710B513460A4604461946FFF792
:10026000F0FF204610BD421C0178401C0029FBD144
:10027000801A704703460A780270401C491C002A05
:10028000F9D11846704710B5202A04DB0146203A00
:100290009140002010BD914020239C1A0346E3406A
:1002A0001943904010BD10B5202A04DB0846203ABF
:1002B000D040002110BD0B46D340D0402024A21ACC
:1002C00091400843194610BD064C0125064E05E035
:1002D000E36807CC2B430C3C98471034B442F7D367
:1002E000FFF7F2FE484800086848000870B58D180E
:1002F0000478401CA207920F01D10278401C231100
:1003000006D10378401C03E006780E70401C491C9F
:10031000521EF9D1002B15D002780C268A1A3440CF
:10032000401C0C2C03D0A401121B9B1C08E0047879
:100330002402121B401CF8E714780C70491C521C54
:100340005B1EF9D5A942D3D3002070BD70B5044619
:1003500000F0CCF80546601C00D0641C00F0C6F824
:10036000401BA042FAD370BDF8B500230124A2E0DF
:1003700027469F403A4070D04D68022D01D0122D83
:1003800014D1DD08AD002D1800952D6A5E07AC462E
:10039000F50E0F26AE46AE406546B543AC460E6937
:1003A0007546AE4065462E43009D2E624D68012D78
:1003B00005D0022D03D0112D01D0122D16D1856844
:1003C0000326AC465D00AE46AE406546B543AC463E
:1003D000CE687546AE4065462E43866046680D7908
:1003E000BE43ED06ED0F9D403543456006685F0056
:1003F0000325BD40AE46AE430D79B446AE07B60FF9
:10040000BE4065462E430660C6687546AE438D689D
:10041000BD403543C5604D68ED004BD5294D6E6B31
:1004200026436E639E08284DB6007519AC46AD682C
:100430009E07360F0F27B740BD4305273F07B84239
:1004400001D1002715E0214FB84201D1012710E06A
:100450001F4FB84202D102270BE02BE01D4FB842DC
:1004600001D1032705E01C4FB84201D1052700E068
:100470000627B7402F436546AF60184D2E684F687A
:100480009643FF0300D516432E606E684F6896436F
:10049000BF0300D516436E60AE684F689643FF02F7
:1004A00000D51643AE60EE684F689643BF0200D594
:1004B0001643EE605B1C0A681546DD4000D057E726
:1004C000F8BD000000100240000001400004005090
:1004D00000080050000C0050001C005000040140B7
:1004E000002A01D08161704781627047014800682D
:1004F00070470000C402002070B5024640325378B5
:10050000202B1CD11378012B19D001231370242424
:100510005470046825689D432560046825681E039F
:10052000B5432560046825680D43256000680168AF
:1005300019430160202050700020107070BD02200F
:1005400070BD70B5024640325378202B1BD1137812
:10055000012B18D0012414702423537003681D68E4
:10056000A5431D6005682B680F263602B3430902B8
:100570001943296000680168214301602020507000
:100580000020107070BD022070BD000070B5040026
:1005900006D02546403568780026002802D005E0C0
:1005A000012070BD2E70204600F05AF9242068709A
:1005B000206801684908490001600F216068090648
:1005C00088432168086121688A680120C00382434A
:1005D0008A60E1680129A16808D0212292021143B2
:1005E00022689160E168022902D005E00143F7E743
:1005F00001212268C902516021684A680F4B1A43E1
:100600004A602168CA688243CA60616920690843F8
:10061000A169090208432168C860216AE0690843AA
:100620002168086020680168012211430160666446
:10063000202068702663AE70002070BD008000022C
:10064000FFB5054604464035687881B0202878D14A
:100650002878012875D001202870FFF747FF07464A
:10066000012200901923D103204600F0CFFE00287C
:100670003CD1222068701020A87000266664039880
:100680006062049860856663618D2F48FF2903D9F5
:10069000FF22228500903BE0618D218500903DE0A6
:1006A0002046029900F09EFE16E000F0D7FE0028DA
:1006B0001CD12068406A616A0870606A401C6062F0
:1006C000208D401E81B22185608D401E6085608D29
:1006D000002801D000290CD0608D0A9900283A46E4
:1006E0002046E2D100F0FAFE00281CD0012005B01F
:1006F000F0BD00970022802120460A9B00F086FE74
:100700000028F3D1608DFF2805D9FF2222850096AD
:1007100001231B06C4E7608D20850096208D0123F0
:10072000C2B25B06BCE721682020C86121684A6824
:10073000064B1A404A606870AE702E700020D6E7F3
:10074000FFE70220D3E700000024008000E800FE5D
:10075000FFB5054604464035687881B0202878D139
:100760002878012875D001202870FFF7BFFE0746C2
:10077000012200901923D103204600F047FE0028F3
:100780003CD1212068701020A87000266664039870
:100790006062049860856663618D2F48FF2903D9E4
:1007A000FF22228500903BE0618D218500903DE095
:1007B0002046029900F016FE16E000F0B5FE002873
:1007C0001CD1606A216800788862606A401C60629F
:1007D000608D401E6085208D401E80B22085618D19
:1007E000002901D000280CD0608D0A9900283A46D3
:1007F0002046E2D100F072FE00281CD0012005B096
:10080000F0BD00970022802120460A9B00F0FEFDEB
:100810000028F3D1608DFF2805D9FF22228500969C
:1008200001231B06C4E7608D20850096208D0123DF
:10083000C2B25B06BCE721682020C86121684A6813
:10084000064B1A404A606870AE702E700020D6E7E2
:10085000FFE70220D3E700000020008000E800FE50
:1008600010B586B0044614216846FFF7F1FC104924
:100870002068884219D10F4CE16A02200143E162ED
:10088000E16A01400591C0200090122001210190F1
:10089000032002910491039069460748FFF764FD25
:1008A000A06B012149050843A06306B010BD0000FC
:1008B000005400400010024000040050024801684B
:1008C000491C016070470000C402002010B50848B0
:1008D00000240168402211430160204600F00AF81C
:1008E000002801D0012401E000F01CF8204610BDD2
:1008F0000020024070B5054609487D210024C9004A
:100900000068FFF7F5FB00F03FFC002801D0012450
:1009100004E000222946501E00F010F8204670BD69
:10092000C80200200448416B012211434163816BDE
:1009300002041143816370470010024010B500F0BB
:1009400085FE10BDF8B504460068614D810601D4EE
:1009500000057DD55E4E0027403EB06BC00004D43C
:10096000B06B31040843B06301275A480168C905D8
:1009700011D40168821511430160FFF7B7FD0090A3
:1009800005E0FFF7B3FD0099401A642844D85148A8
:100990000068C005F5D53168032000056268014094
:1009A0001040884205D10323A0681B0518408842E7
:1009B00008D09003800F032804D13068800301D54C
:1009C0000120F8BD286903210904084029D00A4004
:1009D000824202D02278920606D4A2680A4082425D
:1009E0001FD0208800051CD528692A698843012169
:1009F000C9040A432A612A698A432A612861C00519
:100A00000FD5FFF773FD009008E0FFF76FFD009929
:100A1000411A3148814201D90320F8BD2869800577
:100A2000F3D561688803800F032805D1326800057B
:100A3000824301400A43326028690322616812043C
:100A4000114008432861002F06D0B16B012000E05F
:100A500002E000078143B1632078C00705D0E86851
:100A6000E168800880000843E8602078800705D5A9
:100A7000E8680C21884321690843E8602078400732
:100A800006D5E86803218902884361690843E86064
:100A90002078000706D5E868032109038843A16987
:100AA0000843E8602078400606D5E86801218906F9
:100AB0008843216A0843E8602078000606D5E86884
:100AC000032189048843E1690843E8600020F8BDF8
:100AD000401002400070004088130000F8B50E4638
:100AE00005007DD053480068C007C00FB0420AD24D
:100AF0005048016849084900314301600068C00757
:100B0000C00FB04271D128784B4C800705D5E06802
:100B1000F0218843A9680843E0602878C00752D0D4
:100B20006868022817D0032818D02168012818D037
:100B30008905002959DAE168890889000143E160E3
:100B4000FFF7D4FC69680746022912D003291CD09C
:100B5000012926D033E021688903EAE72168890169
:100B6000E7E74907E5E7FFF7C1FCC11B33488142CE
:100B700023D8E0680007800F0228F4D123E0FFF7B4
:100B8000B5FCC11B2D48814217D8E0680007800FD3
:100B90000328F4D117E0FFF7A9FCC11B27488142C5
:100BA0000BD8E0680007800F0128F4D10BE0FFF7B5
:100BB0009DFCC11B2148814201D90320F8BDE0689A
:100BC0000007800FF3D11B480168C907C90FB14264
:100BD0000DD901684908490031430160006800E00F
:100BE00003E0C007C00FB04201D00120F8BD287853
:100BF000400706D5E068072109028843E9680843F1
:100C0000E0602878000707D5E0680721C90288431B
:100C10002969C9000843E06000F036F8E168084A35
:100C20000906090F515CC840064908600020FFF71B
:100C300061FEF8BD00200240001002408813000051
:100C400024480008C8020020044805490068C96813
:100C5000044A4905490F515CC8407047C80200204A
:100C6000001002403D480008044805490068C96872
:100C7000044A8904490F515CC8407047C8020020EB
:100C8000001002403D48000810B5184AD1680C20F9
:100C9000084004280BD0082810D00C2810D0506829
:100CA0000004410F0120C003491C884010BD10689A
:100CB000C00601D50E4810BD0E4810BD0E4810BD2F
:100CC00088020E4B000F185C0902D368890F491C7B
:100CD000DB0301D5084A05E01268D20601D5044AB3
:100CE00000E0044A5043FFF703FA10BD0010024031
:100CF00000093D000024F40000127A003448000886
:100D0000FEB505007ED0FE4CE7680C20E668074083
:100D10000120000406402878C00747D0082F05D0DE
:100D20000C2F0AD101200004864206D120688003DE
:100D30003CD568680028E5D038E0012069680004E7
:100D4000814203D121680143216011E00523012282
:100D50001B0492049942216802D111432160F1E7FA
:100D60008143216021680140009120689043206008
:100D7000686800280DD0FFF7B9FB009005E0FFF789
:100D8000B5FB0099401A64287AD820688003F6D50C
:100D90000CE0FFF7ABFB009005E0FFF7A7FB009925
:100DA000401A6428F0D820688003F6D42878800799
:100DB00055D50923E868042F0DD00C2F01D1002E42
:100DC00009D000283BD02168994301432160FFF7F7
:100DD0008DFB064627E02168490701D5002891D000
:100DE00061681F22120291432A6912021143616055
:100DF0002168994301432160FFF746FFE168090636
:100E00000A0F00E0BBE1BF49895CC840BE490860E9
:100E10000020FFF76FFD002872D120E0FFF766FB8E
:100E2000801B0228B0D820684007F7D560681F21D2
:100E30000902884329690902084360600FE02068BD
:100E4000400840002060FFF751FB064604E0FFF732
:100E50004DFB801B022897D820684007F7D42878DC
:100E6000C0065FD5002F0CD0E869002849D0206863
:100E7000FF21013108432060FFF738FB06462DE0D3
:100E8000E4E02068800502D5E8690028A7D0606802
:100E9000072149038843696A084360606068298CB8
:100EA0000002000A090608436060686A410B0120DD
:100EB000C003491C8840E16809060A0F9149895C12
:100EC000C840914908600020FFF714FD002817D1A1
:100ED00028E0FFF70BFB801B0228A3D820688005C1
:100EE000F7D56068072149038843696A0843606051
:100EF0006068298C0002000A09060843606011E05E
:100F000023E12168FF20013081432160FFF7EEFAE1
:100F1000064604E0FFF7EAFA801B02289BD8206807
:100F20008005F7D42878794E000724D56869002811
:100F3000306910D0012108433061FFF7D7FA0090E3
:100F400005E0FFF7D3FA0099401A02287ED83069ED
:100F50008007F6D50FE0400840003061FFF7C6FA81
:100F6000009005E0FFF7C2FA0099401A02286DD8F8
:100F700030698007F6D42878400764D500200290B5
:100F8000A06BC00006D4A06B012109070843A06331
:100F9000012002905E480168C90511D401688215DC
:100FA00011430160FFF7A2FA009005E0FFF79EFAF7
:100FB0000099401A642849D855480068C005F5D5FD
:100FC000FF20AA680130824203D1316901433161B7
:100FD00011E001218902002A07D005231B029A4251
:100FE00003D132690A433261EFE7326982433261E9
:100FF000306988433061A86800280ED0FFF776FA80
:10100000009006E0FFF772FA0099411A41488142C8
:101010001CD830698005F5D50DE0FFF767FA009020
:1010200006E0FFF763FA0099411A3A4881420DD869
:1010300030698005F5D40298002804D0A16B012006
:1010400000078143A1632878800600E07CE02ED56C
:101050003148A9694314002916D0A26801210A4326
:10106000A260626B0A436263016A19430162FFF77F
:101070003DFA064604E0FFF739FA801B022863D8E0
:10108000A0688007F7D512E0A16849084900A1606F
:10109000016A99430162FFF729FA064604E0FFF767
:1010A00025FA801B02284FD8A0688007F7D4A86AC9
:1010B000002866D00C2F4DD0012636060228206865
:1010C00005D0B0432060FFF711FA05463EE0B0437B
:1010D0002060FFF70BFA074604E0FFF707FAC01B92
:1010E000022831D820688001F7D4296BE86AE268C9
:1010F0000843696BFD231B049A43114308430DE029
:101100000010024024480008C8020020401002409D
:10111000007000408813000000000140E06020687B
:1011200030432060FFF7E2F9054604E0FFF7DEF9FF
:10113000401B022808D820688001F7D521E0FFF77E
:10114000D5F9401B022801D90320FEBD206880018B
:10115000F5D416E00128F8D0E06801210904EA6A14
:10116000014091420BD10F2189042A6B0140914229
:1011700005D1032189050840696B884201D001200F
:10118000FEBD0020FEBD0000094910B5401E88428A
:1011900001D9012010BD074C60610321081F00F038
:1011A00055FA0020A06107202061002010BD00003A
:1011B000FFFFFF0000E000E010B5040003D0606F07
:1011C000002802D007E0012010BD00217020015549
:1011D000204600F027F8242060672068016849084D
:1011E00049000160204600F051FB0128ECD0606A04
:1011F000002802D0204600F0B3FA20684168092296
:10120000D20291434160206881682A229143816023
:1012100020680168012211430160204600F006FBAE
:1012200010BD000010B586B0044614216846FFF7D3
:101230000FF81149206888421BD11048816B0122A8
:10124000520411438163C16A01221143C162C06A21
:101250006946104005900C2000900220019000206B
:101260000290032003900420049005200007FFF75C
:101270007BF806B010BD00000044004000100240A2
:10128000FFB50446406F83B017460D4620285CD159
:10129000002D0AD0002F08D0A168C001814207D1DB
:1012A0002069002804D1E80702D0012007B0F0BD72
:1012B000204660300290007C012846D0029801212F
:1012C00001740020E06721206067FFF70FF92646D0
:1012D00040360190378277820120A1680003814265
:1012E00002D12069002802D02F46002511E00027F6
:1012F0000FE000228021204600F0DCFB002815D101
:10130000002F15D02168387888627F1C708A401EB3
:101310007082708A019B002806980090E9D1002213
:101320004021204600F0C6FB002808D00320BDE77E
:1013300028882168C005C00D8862AD1CE6E7202022
:101340006067029900200874B0E70220AEE7FEE76C
:1013500001688A69D243920701D400228A62006838
:101360008169C943C90703D08169012211438161A1
:1013700070470000F7B5044600680E468069C04318
:10138000C0062BD420272546403520688069C043FD
:10139000800612D5701CF8D0FFF7A8F80299401A01
:1013A000B04201D8002EF0D1606C384360646F7099
:1013B0000020A87028700120FEBD21681020C8619F
:1013C0002068C7612046FFF7C3FF20684168044AD0
:1013D00011404160606C04210843E7E70020FEBD36
:1013E00000E800FEF0B50668059C7568064F600DC4
:1013F000384385438805800D110408431843204372
:1014000005437560F0BD0000FF63FF03F8B51D469E
:1014100017460E46044609E0681C07D0FFF766F839
:101420000699401AA8420BD8002D09D0206881697E
:10143000304688430FD00020B842EDD00020F8BDE0
:10144000616C202001436164403460700020A07012
:1014500020700120F8BD0120EEE70000F7B500275D
:10146000202605460446403528E02046029A019988
:10147000FFF780FF002801D00120FEBD20688069B1
:10148000C043800611D420688169C943490702D44A
:10149000218D002917D1C661206841680E4A11408C
:1014A000416067646E70AF7013E0FFF71FF8029938
:1014B000411A0198814208D8002806D02068806926
:1014C000C0434007D1D40020FEBD606C304360644F
:1014D0006E702F70D0E7000000E800FE70B5164671
:1014E0000D4604460FE0324629462046FFF742FFEC
:1014F000002801D0012070BDFEF7F8FF801BA84234
:1015000008D8002D06D020688069C0438006EAD440
:10151000002070BD616C2020014361644034607024
:101520000020A0702070E5E770B516460D46044611
:1015300011E0324629462046FFF71CFF002801D063
:10154000012070BD681C06D0FEF7D0FF801BA842AA
:1015500008D8002D06D020688069C0438007E8D4F1
:10156000002070BD616C20200143616440346070D4
:101570000020A0702070E3E730B587B014216846E2
:10158000FEF766FE1348C26A04210A43C262C26AB9
:101590000A400592C16A01242143C162C16A214007
:1015A0000591C26A02210A43C262C06A0A4D08401C
:1015B000059000220C212846FEF792FF00210C2006
:1015C000029103910090019469462846FEF7CCFEF3
:1015D00007B030BD001002400008005010B50D48A3
:1015E0000B490160002141608160016141618161BD
:1015F0000122C161C2600162FEF7C8FF00210548F7
:10160000FEF77AFF00210348FEF79BFF10BD0000A4
:10161000005400408C03002010B50A4808490160BE
:10162000E1214902416000218160C1600161816165
:10163000C1610C22016242614162FFF7BDFD10BD34
:1016400000440040D8030020704700008307FF22B9
:10165000DB0E9A408907090E994000280BDA000733
:10166000000F0838830808489B001818C369934383
:101670000B43C3617047830804489B001B1818681C
:10168000904308431860704700ED00E000E400E07C
:101690007047704710B5FFF711F910BD10B59CB039
:1016A00038216846FEF7D4FD142117A8FEF7D0FDB7
:1016B00024210EA8FEF7CCFD134801680322D202B4
:1016C0009143C214891801601020009001200790F6
:1016D000052000244003099008940A946846FFF707
:1016E0000FFB0F201790189419941A9400211B9443
:1016F00017A8FFF7F3F90A200E90129414940EA87D
:10170000FFF720F91CB010BD0070004010480168C0
:10171000821511430160C1680E4A1140C160016821
:101720000D4A1140016081684908490081600168E3
:101730000122920491430160C168FD221204914389
:10174000C160002101610549C00388607047000045
:10175000001002400C40FF88F6FFF6FE00ED00E0AE
:1017600010B5818CC90707D001684A6801235B0462
:101770009A43836A1A434A60818C890707D50168B6
:101780004A6801231B049A43C36A1A434A60818C46
:10179000490707D501684A6801239B049A43036BF4
:1017A0001A434A60818C090707D501684A680123FA
:1017B000DB039A43436B1A434A60818CC90607D501
:1017C0000268916801231B039943836B194391605D
:1017D000818C890607D501688A6801235B039A43D7
:1017E000C36B1A438A60818C490612D503685A6814
:1017F00001210905046C8A4322435A60026C8A4223
:1018000007D10268516803235B059943436C194370
:101810005160818C090607D501684A680123DB0401
:10182000806C9A4302434A6010BD0000F8B5002660
:101830000446C667FEF75AFE054620680068124F48
:10184000000709D501212B460022490520460097B3
:1018500000F030F900280DD12068006840070BD552
:1018600001212B46002289052046009700F022F92D
:10187000002801D00320F8BD20206067A0676034F5
:1018800026740020F8BD0000FFFFFF01F8B50446F4
:101890002669A268E76932436669102000253E4345
:1018A0002368324378491E68784F3E4016431E60D5
:1018B00023685A6803263603B243E66832435A6007
:1018C0002368A2698B4201D0266A32439E680B27A7
:1018D0003F02BE4316439E606D4E23686D4AB3427D
:1018E0000CD1D2689207920F06D0012A38D0022A72
:1018F00034D0032A20D11EE001201DE0664EB34201
:101900000AD1D2680C26324026D0042A28D0082AD0
:1019100024D00C2A10D10EE08B420DD1D6680322C0
:101920009202164018D001229202B61A18D0B61AA6
:1019300014D0964200D10820564A0126403A574F0B
:10194000F6038B4236D100280CD002280DD0042893
:1019500012D008281FD11CE00020EDE70220EBE7A1
:101960000420E9E7FFF770F908E01068C00601D528
:10197000384605E04A4803E0FFF786F9002873D0AF
:10198000626851005118814205D81103814202D387
:1019900003E03046F4E7012566E0010E0602500838
:1019A000002330185941FEF7CDFB03210902411AEB
:1019B0003C4A55E0E169B14232D1030002F0CCFB70
:1019C00009070A0D06250606062B0600E3E7FFF7C2
:1019D0003BF91CE0FFF748F919E010686168C006A0
:1019E00002D54808304A01E0304A48088018FEF71E
:1019F0007FFB80B201462E4A10399142CBD8511C50
:101A000001400007400F08432CE0FFF73DF96168F3
:101A100040004A08EAE76168012248081204E5E745
:101A2000030002F099FB09070A0D06260606062C9C
:101A30000600B0E7FFF708F91DE0FFF715F91AE017
:101A400010686168C00602D54808C01902E0144851
:101A50004A081018FEF74CFB80B20146144A1039B0
:101A6000914298D82168C8600020206660662846A8
:101A7000F8BDFFF709F961684A088018EAE761686C
:101A800048088019E6E7000000480040F369FFEFCE
:101A900000380140401002400044004000093D0071
:101AA0000024F400FFFC0F0000127A000048E80157
:101AB000EFFF0000FFB581B017460E4604460A9DB1
:101AC00009E0681C07D0FEF711FD0499401AA842EE
:101AD0000CD8002D0AD02068C1693046884318D040
:101AE0000020B842EDD0002005B0F0BD20680168AC
:101AF000FF22A132914301602068816849084900B2
:101B0000816020206067A06700206034207403207B
:101B1000EAE70120E5E700007CB50D460446DA213E
:101B20000A5D0020012A03D0022A01D0032A15D120
:101B300001AB6A460121204600F093F9FF21009A8B
:101B400009048A4202D8019A8A4207D9002805D19D
:101B5000002D04D00E49204601F0B2FD7CBD0422C8
:101B6000FF21204600F086FE054600227021204617
:101B700000F080FE05430022FF21204600F07AFE9F
:101B8000054300228021204600F074FE28437CBDDE
:101B9000F3000020F8B50646002401220B21304650
:101BA00000F068FE074600220B21304600F062FE7E
:101BB00005463D436A461321304600F022FB694644
:101BC000641C09782843E4B2490704D0032C04D2EA
:101BD0000028E2D0F8BD032CFCD30B20C043F8BD95
:101BE000F0B591B004460022882100F043FE0021A8
:101BF000F020015527467D22FF37D20041377A82F7
:101C0000FF209130B882E51D5548F935A865554A41
:101C1000D4200251216201A9204600F0A9F8060053
:101C200008D16946087148712046402201A9103048
:101C3000FEF7F5FA6420A886E1208000E886FF2000
:101C4000F530288705204002A88701203874024615
:101C50008021204600F00EFE06430122FF2120468F
:101C600000F008FE064300221146204600F002FE66
:101C700006436A469121204600F0C3FA07463743DF
:101C800026466846FF3600782136B07601220021CC
:101C9000204600F0EFFD07430022FF21204600F020
:101CA000E9FD074300228021204600F0E3FD384390
:101CB0000027002851D1B9B20122204600F0DDFBF7
:101CC0007F1C062FF5DB002847D100220221204689
:101CD00000F0D3FB002840D100220321204600F071
:101CE000CCFB002839D100220421204600F0C5FB9E
:101CF000002832D100220521204600F0BEFB00283A
:101D00002BD1092252040021204600F0F5FB0028C7
:101D100023D1012292030121204600F0EDFB00288F
:101D20001BD1232212040221204600F0E5FB0028EB
:101D300013D100220321204600F0DEFB00280CD145
:101D4000FF20307402460121204600F093FD01215E
:101D5000B174002801D10021697511B0F0BD0000F7
:101D6000856B0100A470090010B501F009F810BDE1
:101D700070B50646007C08700C460831304600F00D
:101D800042F8002831D1207321461031304600F04E
:101D9000E2F9002829D121461431304600F0E3F859
:101DA000002822D1002501E000281ED1A800021938
:101DB000A9B23046243200F07AF8002815D1621911
:101DC000A9B23046183200F066F86D1C062DEBDB28
:101DD00000280AD121463C31304600F0A0F9002805
:101DE00003D1211D304600F0BAF870BD10B50C4685
:101DF0000A46092100F005FA002803D12178C90715
:101E0000C90F217010BDFEB50D46064602AAF82185
:101E100000F034FA04000FD16A460421304600F085
:101E200007FA040008D168460189002906D0009805
:101E3000FEF75EF92860B0612046FEBD2868FAE72B
:101E400038B50C466A46132100F0DBF9694609787B
:101E50004A07520FC9062260890F01D00520C043EE
:101E600038BDF8B515461C4606466A460E2100F0F8
:101E700005FA694609880905C9082960002809D1B9
:101E80006A460C21304600F0F9F9694609880905CF
:101E9000C9082160F8BD03460020062902D3001FAF
:101EA000002102E059182031097A11707047F8B505
:101EB0000446164600200B0002F04EF90604061BED
:101EC0001D1F1F2D646B24E06A464421204600F04C
:101ED000D5F9002802D1694609884D02002807D1AA
:101EE00021462131002D19D035600122A5630A72E7
:101EF000F8BDE46B0DE0246C0BE06A4664212046DB
:101F000000F0BCF9002802D1694609884C0200287B
:101F1000EED13460F8BD0320C043F8BDA26B32603F
:101F20000022E4E77CB50C46DA21095C0025012695
:101F300004290AD06A46142100F063F900280BD165
:101F400069460978C90706D007E001A9FFF778FFBD
:101F50000199042901D025707CBD26707CBD10B587
:101F600001F0CAF910BD10B501F038FA10BD00003B
:101F7000F0B58FB00C4605460C2309AA142100F0D9
:101F80009DF906007ED10022A27508A92260887BF7
:101F9000C97B0002401808A96260897A80B20A02EF
:101FA00008A9C97A51180904CE0908A9E660097B75
:101FB0000A0208A9497B51180904C909216108A925
:101FC00089790A0208A9C97951188FB2A78208A98C
:101FD00009790D91FF2153314A5BFF213231495D6F
:101FE00000917D21C9008A421BD042431046FF3038
:101FF000F530FEF793F8298C80B28AB2297F002948
:102000000FD07A431112B14206D10098002801D0B6
:10201000224806E022480BE0711A7043FEF768F888
:1020200080B20099002903D081082181800101E05C
:1020300020810020E0750CA801903B4632460094B8
:1020400028460D9901F0E8F9060023D108A8007C84
:102050002946207650311C220D4602A8FEF7DFF8F3
:10206000218968460182E17DC1776189418260688A
:102070000390E068059020690690A18A68468183F4
:10208000217E00E006E008A801701C2202A9284673
:10209000FEF7C5F830460FB0F0BD0000B8220000D2
:1020A000E08A000038B50C460546002069460870F5
:1020B0006A460121284600F0A4F800282AD1684683
:1020C000027823460021284602F005FB002821D192
:1020D00068460278A31C0121284602F0FCFA002879
:1020E00018D168460278631C0221284602F0F3FAF0
:1020F00000280FD168460278E31C0321284602F02D
:10210000EAFA002806D168460278231D04212846F1
:1021100002F0E1FA38BD10B501F0A4FA10BD38B5EF
:102120000D4604466A46012100F06BF800280CD1E8
:102130006946FF22097831321155090601D501217E
:1021400000E0002129704034217338BD007F002257
:1021500008701046704738B50D4604466A4620217F
:1021600000F08CF8002808D169460988002905D0BC
:10217000C900296021620121217738BD216A2960C7
:102180000021F9E710B5012301F03FFB10BD10B5A8
:1021900001F05BFB10BD38B5047C05466846047051
:1021A000002C04D1284600F029FA002802D1284644
:1021B00001F0D8FA0146214303D10321FF3521352F
:1021C000A97438BD70B50C460546002100F095F89D
:1021D00000280ED12846FFF7DEFF002809D121464E
:1021E0002846FFF7C5FE002803D100212846FFF747
:1021F000D1FC70BD10B500240220FEF7A7F82046E0
:1022000010BDF7B5164607460024012201A901F0CA
:102210007FFF1325ED43002806D1012231463846C1
:1022200001F064FF002800D02C462046FEBD0000CF
:10223000F7B5164607460024012201A901F068FF00
:102240001325ED43002806D104220B49384601F03E
:102250004DFF002801D02C460BE007480278C178DA
:1022600012068918427880781204000210180818A3
:1022700030602046FEBD0000CC020020F7B51646B7
:1022800007460024012201A901F042FF1325ED4376
:10229000002806D102220849384601F027FF00280D
:1022A00001D02C4605E0044801784078090208185E
:1022B00030802046FEBD0000CC020020FFB581B07A
:1022C00017461E460024012202A9019801F020FFB2
:1022D0001325ED43002806D132463946019801F016
:1022E00005FF002800D02C46204605B0F0BD10B5F3
:1022F0004A088A2100F0BEFA10BD024600200329D8
:102300000CD004DC002909D0012904D106E01429ED
:1023100004D0152902D00720C043704711747047BC
:1023200070B5049E1C460546002902D00920C04312
:1023300070BD142A08D0152A0FD0230001F00CFF1D
:102340000567696B6D6F8600002E04D00122842121
:1023500000F090FA70BD1022F9E70122FF2100F091
:1023600089FA044600221146284600F083FA044305
:102370000022FF21284600F07DFA0443012280213B
:10238000284600F077FA044302228521284600F00F
:1023900071FA04430422FF21284600F06BFA04433B
:1023A0000022CD21284600F065FA04431122CC21F9
:1023B000284600F05FFA04430722FF21284600F078
:1023C00059FA04430022BE21284600F053FA044380
:1023D0000622FF21284600F04DFA04430922CC21B1
:1023E000284600F047FA04430022FF21284600F067
:1023F00041FA04430122FF21284600F03BFA04433E
:1024000000221146284600F035FA204370BD002214
:1024100006E0012204E0022202E0032200E004229E
:102420000A2100F027FA0028F0D1002E11D0102345
:10243000EF228421284600F009FA0028E6D1DA20AC
:10244000445500212846FFF7A5FB70BD0A20C04374
:1024500070BD0023ECE770B50546D000020D1C46A8
:102460000E21284600F01AFA002805D1E000020DDE
:102470000C21284600F012FA70BDF7B50446002082
:102480000D46074602460646062902D30320C043EE
:10249000FEBD029900290DD0A90009194F6B012238
:1024A000214620312B0001F057FE060709101214B7
:1024B0001704EBE70126F3E70A7215E0F801020CB6
:1024C0004421204600F0EAF90CE08A720CE0CA725E
:1024D0000AE07300FE2201E03301EF226021204672
:1024E00000F0B4F90028D3D16119029A2031002AF2
:1024F00000D001220A72FEBD70B543182033144685
:102500001B7A8D0000222D18002B1BD0E3011E0C1E
:102510000B0001F021FE060406090B0D0D144463A7
:1025200010E03246442105E0C4630BE0046409E096
:102530003246642100F0B2F9020003D003E0032226
:10254000D24300E06C63104670BD10B501F04EFB45
:1025500010BDF7B582B00F460646002168460170EF
:102560006A4601213046FFF74CFE050068460078B8
:10257000044627D1049A291F012A06D03B0001F006
:10258000EBFD0516181A1C1F26003B0001F0E4FDA8
:10259000050406090B0D1F00102100E028210C4343
:1025A00010E00421FBE74021F9E78021F7E7EF2164
:1025B00004E0D72102E0FB2100E0BF210C4001E054
:1025C0004406640E844212D0002D02D00FE00D4666
:1025D0000DE022460121304600F04CF9050006D1FD
:1025E000FF203130845530467169FFF7AEFF284631
:1025F00005B0F0BD10B501F0C7FB10BDFEB5064635
:10260000077C6846012507712A468021304600F084
:1026100031F90122FF21304600F02CF90022114649
:10262000304600F027F93446FF342134A27E912150
:10263000304600F01FF901220021304600F01AF95F
:102640000022FF21304600F015F90022802130469B
:1026500000F010F9002F07D00425012F26D0032FFA
:102660002ED00720C043FEBD01220021304600F0DD
:1026700001F969460D700028F5D100247D273F013E
:1026800006E0002C04D06A4600213046FFF7B9FD71
:102690006A46127829469143641C014301D1BC4229
:1026A000EFD3BC42DFD30620C043FEBD002803D1D8
:1026B00001213046FFF730FA022208E0A574FEBD82
:1026C000002803D101213046FFF726FA0422002119
:1026D000304600F0CFF80028F0D0FEBD70B59AB0BB
:1026E0000446402107A8FDF7B3FD00256846058391
:1026F0000571057501212046189500F09BFBE61D2C
:10270000F936327DF17C012A08D802D0002A03D0A4
:102710000AE0202902D807E00C2905D905AA18A942
:10272000204601F092F802E0204601F0D3FA464933
:1027300000287DD1FF205130005D002800D1F16CD0
:10274000204600F0BDFF00287BD100220423114663
:1027500020460095FFF7E4FD002872D10122FF21F9
:10276000204600F087F8054606AA84212046FFF798
:1027700085FD05430022FF21204600F07BF8284319
:102780005FD16846008B264600018036706507A938
:102790002046FFF7EDFA002853D101A92046FFF7A4
:1027A00025FB00284DD1684635460079A035687470
:1027B0002046402207A91030FDF731FD01AA012172
:1027C0002046FFF71EFD00283BD16846007928749B
:1027D000002211462046FFF7BCFE002831D100221E
:1027E00002212046FFF7B5FE00282AD10320A87455
:1027F00002AA00212046FFF78EFC002821D168465E
:10280000007A403D287202AA01212046FFF783FC8E
:10281000002816D16846007A287003AA03212046B2
:1028200001F000FE00280CD1039803AA042100E067
:1028300007E07066204601F0F5FD002801D10399FC
:10284000F1651AB070BD000000000020F8B5154613
:102850001C460E4607466A46FFF7D3FC002808D1FF
:102860006846027831462A4022430270384600F01A
:1028700001F8F8BD10B50346074800240170427006
:1028800001460222184601F043FC002801D013241F
:10289000E443204610BD0000CC02002010B50346E2
:1028A000084800240170110A417082700146032219
:1028B000184601F02DFC002801D01324E4432046E3
:1028C00010BD0000CC02002070B51C460025134648
:1028D00006463F2C01D9281F70BD094822460170C9
:1028E0001946401CFDF79BFC621C0549304601F06F
:1028F0000FFC002801D01325ED43284670BD0000D1
:10290000CC020020FFB581B0034600200090FF20DC
:102910005530C55AFF3301339B6D284658438030EC
:10292000040A6C4301250B9E0027ED03002A0AD000
:102930008802510808181146FDF7DAFB41004018DB
:1029400040434019070C0A99049848430121C903E0
:102950004018050C7018000C6D430621C01CFDF7D3
:10296000C7FBC100081A2349884201D908050AE0BB
:102970000621F01CFDF7BCFBC100081A0121C903A8
:102980004018000C40430C99281849080818FE26E6
:102990000C99FDF7ADFB800331467F30FDF7A8FBB6
:1029A00078437D25ED00FF302946F530FDF7A0FB8B
:1029B0000001FF302946F530FDF79AFB0546204619
:1029C0002030800900F067FE0646002D05D068081B
:1029D00000192946FDF78CFB00E0002000F05BFEAB
:1029E0000D9986420E6001D90D990860009805B0D6
:1029F000F0BD0000FFFF000008460921090210B5E4
:102A000000234843024A1946FDF7CCFB10BD0000E5
:102A100077060000FFB58FB00446006A0C900E46A2
:102A200008697D21C9004843000C0A90F06801251F
:102A300019270690ED037F0405AA3146204600F0D1
:102A4000ECFD0CAA3146204600F0F5FD0B907D21EF
:102A50000598C900484340190C9D000C4D43049053
:102A6000BD4200D93D460B9800284BD1204680300E
:102A70000190C06D02902046E030039002780092F1
:102A80002046029900F0F6F807460198406E019042
:102A900003980199027A204600F0ECF80146009A6A
:102AA0000320082A00D10220C9194143C8027D270A
:102AB000FF00FF303946F530FDF71AFB6649484301
:102AC000FF303946F530FDF713FB00900598009A6A
:102AD0008030010A084650438030070A08020590FA
:102AE000E01DF93004990990002902D0002F0BD085
:102AF0000BE011995948086009990864129800215F
:102B000001600B9813B0F0BD01271920400103901C
:102B10000A980004FDF7ECFA5149884200D90846AA
:102B20004B21C90048430A9038460C21484300F025
:102B3000B2FD40000B9030894A4948430E900498FA
:102B4000690000040790401A7D25ED00FF302946FA
:102B5000F530FDF7CDFA049007982946FF30F5309F
:102B6000FDF7C6FA014604980002FDF7C1FA0028F5
:102B700000DA40420502307E0126360400280CD1DE
:102B800039490E98FDF7B4FA711B414370100818CB
:102B9000000C801940084043860B1921490101208F
:102BA0007143C00309180A9A090C1018000C494314
:102BB0004043081800F06FFD000464213230FDF737
:102BC00097FA0B99FDF794FA284948432849401889
:102BD0004900FDF78DFA05460F200003854200D914
:102BE00005460199029840187D21FF30C900F53053
:102BF000FDF77EFA192142080904521801461046D1
:102C0000FDF776FA00F047FD00027D21FF30C90094
:102C1000F530FDF76DFA6D434043281800F03BFD99
:102C20007D21C9004843002F02D00C49884200D9B9
:102C30000A4811996D460860099908640398129B27
:102C4000009A0A990FC533462046069A0599FFF760
:102C500059FE0B9056E7000077060000AE878F0202
:102C6000666666009A9906005C120000B50B0000CB
:102C70008813000010B50C461146FFF7BDFE7D21FC
:102C8000FF30C900F530FDF733FA01467D20C00062
:102C9000444348082018FDF72BFA10BD70B50D46C7
:102CA0001146FFF7A9FE7D24E400FF302146F530F0
:102CB000FDF71EFA014628464843FF302146F5300D
:102CC000FDF716FA70BDF8B50F4615460446022109
:102CD00000F0B0F806000CD12246E032517C2846C4
:102CE0004030002907D0917C39702146F331FDF73F
:102CF000C1FA3046F8BD002139700170F9E7C1B260
:102D0000000A8140481C70474000801CC0B27047D8
:102D1000F8B5064600228321FFF7ACFD040013D16D
:102D200000257D273F016A4683213046FFF769FA77
:102D3000044668460078204302D16D1CBD42F2D3A0
:102D4000BD4201D30624E443012283213046FFF72C
:102D500091FD2043F8BD0022114600280AD0401EF4
:102D600002E04008491C89B2020AFAD10902C0B245
:102D7000081882B2104670474008401EC0B2704723
:102D80007CB50C460A46054601A9FFF79CFF0028C2
:102D90002CD168460079002805D0222805D82028A3
:102DA00005D013A106E015A104E0272801D216A141
:102DB00000E018A12046FDF75DFA20461BA1203057
:102DC000FDF758FA224660321446C0212846FFF724
:102DD00018FA00280AD16A46C2212846FFF711FADC
:102DE00001216170694609780909A1707CBD000064
:102DF000564C35334C30582054533100564C3533F3
:102E00004C30582054533000564C35334C305820F9
:102E100054533200564C35334C30582045533120F2
:102E20006F72206C6174657200000000564C35337F
:102E30004C305800F0B5044697B000200A900E9030
:102E40000D9011900F9019200002109000200C900E
:102E500015902046E0301290067C0F46072E7DD05C
:102E6000012280212046FFF705FD05460122FF21B2
:102E70002046FFF7FFFC0543002211462046FFF7DE
:102E8000F9FC05430622FF212046FFF7F3FC05432A
:102E90006A4683212046FFF7B4F905436846027865
:102EA0000420024383212046FFF7E4FC0543072268
:102EB000FF212046FFF7DEFC054301228121204649
:102EC000FFF7D8FC05432046FFF794F928430A9002
:102ED000012280212046FFF7CDFC05460A980543D4
:102EE000F8074BD0F00749D16B2294212046FFF719
:102EF000C1FC05432046FFF70BFF054313AA9021B1
:102F00002046FFF795F90543139824224104000455
:102F1000490EC00F0E910D9094212046FFF7AAFC98
:102F200005432046FFF7F4FE054313AA90212046EF
:102F3000FFF77EF9139905430A0E684602710A0CE1
:102F400042710A0A8271C171252294212046FFF73D
:102F500091FC05432046FFF7DBFE00E0C9E1054395
:102F600013AA90212046FFF763F9294605460D4331
:102F7000139968460A0E0272090C4172B8077DD592
:102F8000B0077BD4022294212046FFF773FC05434F
:102F90002046FFF7BDFE054303AA90212046FFF718
:102FA00030F905437B2294212046FFF763FC05435B
:102FB0002046FFF7ADFE054309AA90212046FFF702
:102FC00020F90543772294212046FFF753FC05435F
:102FD0002046FFF79DFE054313AA90212046FFF7E8
:102FE00027F9139905434A0E68460274C801420E38
:102FF000684642748803420E684682744805420E51
:103000006846C2740807410E684601707822942110
:103010002046FFF72FFC05432046FFF779FE0543C6
:1030200013AA90212046FFF703F905431399684638
:1030300000784A0F121868460275C800420E6846AA
:1030400042758802420E684682754804420E684600
:10305000C2750806420E68460276C807410E6846E9
:103060000170792294212046FFF704FC0543204695
:10307000FFF74EFE054313AA902100E046E02046EC
:10308000FFF7D6F805431399684600788A0E1218A0
:10309000684642768801420E684682764803420EB0
:1030A0006846C2760805420E68460277C806410E99
:1030B000684601707A2294212046FFF7DBFB054326
:1030C0002046FFF725FE28430A9013AA90212046A8
:1030D000FFF7AEF805460A9813990543684600784D
:1030E0008A0F1218684642778800420E6846827737
:1030F0004802420E6846C2770804420E08A80270D1
:10310000C805410E08A8417000218170780776D566
:10311000700774D47B2294212046FFF7ABFB054354
:103120002046FFF7F5FD054311AA90212046FFF741
:103130007FF805437C2294212046FFF79BFB054343
:103140002046FFF7E5FD05430FAA90212046FFF733
:103150006FF80543732294212046FFF78BFB05434C
:103160002046FFF7D5FD054313AA90212046FFF71F
:103170005FF80543139874220006000C1590942103
:103180002046FFF777FB05432046FFF7C1FD0543C7
:1031900013AA90212046FFF74BF805431398752298
:1031A000010E15980143159194212046FFF762FB0B
:1031B00005432046FFF7ACFD054313AA90212046A6
:1031C000FFF736F80543139876220006010C0C91A0
:1031D00094212046FFF74EFB05432046FFF798FD5C
:1031E00028430A9013AA90212046FFF721F80546AC
:1031F0000A980C9905431398000E08430C9000227E
:1032000081212046FFF736FB05430622FF21204699
:10321000FFF730FB05436A4683212046FEF7F1FFA6
:10322000054368460278FB20024083212046FFF7D1
:1032300021FB05430122FF212046FFF71BFB05432D
:10324000012200212046FFF715FB05430022FF2144
:103250002046FFF70FFB0543002280212046FFF7A1
:1032600009FB014629430A9143D1E51DF807F935C9
:1032700000280FD0F0070DD10E98E8740D9828752E
:10328000002001A923180A5CFF332133401C9A72E5
:103290000628F7DBB8070ED5B0070CD46846017BCB
:1032A0001298417408A80179129881742046F3306D
:1032B00004A9FCF7DFFF780716D5700714D411981E
:1032C000A8610F98E8611598400228620C990020C7
:1032D000002908D008461099401A7D21C9034843A7
:1032E0000014404200B2E0603E4368460670129807
:1032F00006740A9817B0F0BDF3B57D208BB00001BD
:1033000000903448334E283806900020019032480F
:1033100008600C46A525AD002E4F643602A90B9817
:10332000FEF7C0FE002852D16946097A002907D16C
:103330006946497A002903D16946897A002922D051
:103340006A4602210B9801F06DF800283FD16946CA
:10335000097A002904D0009A2168D21989182160BD
:103360006946897A002905D0009A2168921952008D
:10337000891807E06946497A002904D0009B226831
:103380005919511821606946C97A00290BD001AA40
:1033900003210B9801F046F8019A21685219891807
:1033A0002160002813D16946097B00290CD005AAA9
:1033B00004210B9801F036F8059B069922685918EC
:1033C00051182160002802D10B9922684A610DB082
:1033D000F0BD00004E020000360B0000F8B50C46B0
:1033E00001250C4E2D036A462821FEF747FF0028D1
:1033F0000BD1694609880A05120D69460A80B24256
:1034000004DD511BFA2251432160F8BDFA214A43E1
:103410002260F8BDFF070000FFB593B000201D9D9E
:103420006A461090107410771075107690840746D5
:1034300006460C904806040F19D0052C17D0072C0F
:1034400015D00C2C13D00D2C11D00E2C0FD00F2C0E
:103450000DD00020119004AA00211398FEF71BFD47
:103460006946097C00291CD0002802D020E00120F8
:10347000F0E70CAB08AA1C991398FFF7CBFA0028C9
:1034800016D11C990C9848810DAA00211398FEF7BB
:103490000EFD0D99002904D0089A8A4201D9012114
:1034A0001091002804D105AA02211398FEF7F3FC1D
:1034B0006946097D002928D000282DD10EAA0221B5
:1034C0001398FEF7F4FC002812D10122FF21139873
:1034D000FFF7D0F900280BD109AAB6211398FEF7FF
:1034E000CDFE002804D10022FF211398FFF7C2F976
:1034F0006946139A898CFF324902013291640E9A0F
:10350000002A02D0914200D90127002804D106AA3E
:1035100003211398FEF7BFFC6946097E002916D0E7
:10352000002816D11698002804D015981699000284
:10353000FCF7DEFD00900FAA03211398FEF7B7FCFD
:103540000F99002903D0009A8A4200D20126002850
:1035500003D02878002829D02BE01198002801D02A
:10356000FF2012E0012C0FD0022C0DD0032C0BD029
:10357000062C0CD0092C0AD0082C03D00A2C01D020
:10358000002F06D0032000E00520287011E0042061
:10359000FBE7042C01D0002E01D00220F5E71098A3
:1035A000002801D00120F0E7002028701C9900209D
:1035B000488107AA01211398FEF76DFC00282AD143
:1035C0006946097C002902D01099002901D0012206
:1035D00000E00022139920318A73042C0DD06A4632
:1035E000127F002A09D00022CA736A46127D002A7F
:1035F00001D0002F03D0012202E00122F4E70022D3
:103600000A746A46127E002A01D0002E01D00122DF
:1036100000E000224A7417B0F0BD38B51446CA68FD
:1036200022606A4600F007F8002803D12168009A5A
:103630008918216038BDF8B5064600200D46106097
:10364000144669463046FEF781FD002809D16946D7
:103650000978002905D0A98A326A51438031090AC4
:103660002160F8BD38B51446002904D0012905D0E1
:103670000321C9430DE06A46502101E06A467021EA
:10368000FEF7BFFD010004D168460078FFF73CFB60
:103690002070084638BD024600200121890700E05D
:1036A00089089142FCD808E04318934203D8D21A03
:1036B0004008401800E0400889080029F4D170470C
:1036C000F3B581B00020019E071FFF360D4604466A
:1036D000013615E0CBB2641CFF2B06D0042B0ED8AC
:1036E000285D69468446002033E0295D641C00297A
:1036F0000CD0012911D0022916D003291BD038463D
:10370000295D002901D00028E4D0FEBD295D641C9C
:103710002A5D09028918B18613E0295D641C2A5DBF
:1037200009028918F1860CE0295D641C2A5D0902F2
:103730008918318705E0295D641C2A5D0902891812
:10374000B187641C295D0029C4D1FEBD2A5D0A54DD
:10375000401C641C9842F9DB0A4661460198FFF759
:10376000B3F8CDE7F8B50646002069467D25087018
:1037700004462D0169463046FEF7D4FB002807D1E8
:1037800069460978012903D0641CAC4201D3C01FEB
:10379000F8BD3046FEF72EFDECE7FFB585B0059C81
:1037A0000025FF3421341E460F46002B00D0257C17
:1037B000022201210598FFF75DF8002808D10021B9
:1037C000059800F065F9002802D1079901290FD06A
:1037D00000213970002809D1002E07D02A46012186
:1037E0000598FFF747F8002800D1257409B0F0BD0F
:1037F000012004A90022009103900146134601977D
:103800000292059800F09AF9E4E7FFB504461F46D6
:10381000FF34213481B00546267C00233A4600F06F
:1038200053F900280FD100233A4628460399FFF7A1
:10383000B4FF002807D1324601212846FFF71AF8C5
:10384000002800D1267405B0F0BDF7B598B0064643
:10385000B4200A9003200F902C200E900020062206
:103860000892119012906A4610751076F21DF93286
:1038700013921490928F014607460C927218FF32F1
:10388000002021321071089A491C9142F6D301227E
:10389000FF213046FEF7EEFF04007ED100224F21CB
:1038A0003046FEF7E7FF0400F7D12C224E213046C8
:1038B000FEF7E0FF0400F0D10022FF213046FEF7C2
:1038C000D9FF0400E9D1B62130460A9AFEF7D2FFAB
:1038D0000400E2D1002280213046FEF7CBFF040035
:1038E000DBD1002306AA05A93046FFF78EFF0400AE
:1038F000D3D100210A9811AB119101AC0F9A0FC4DA
:103900003346FF33089825339A1D00900B930D9290
:10391000304600F0EAFC0400BFD109A93046119DF1
:1039200000F0A6FE0400B8D16846818C0C98814254
:1039300039D9002001463218FF3221321171089A1C
:10394000401C9042F7D300E06D1C0A98401900F02B
:10395000F1FD002802D10E988542F5D30120179081
:103960000F990A9A039111A8049001920898009067
:103970000295012130460B9B0D9A00F0B6FC040025
:103980000BD109A93046119D00F072FE04007CD1D4
:103990006846818C0C98814200E05EE005D90120E8
:1039A00014900F9F01E0002017906846818C0C98BE
:1039B00081425AD21798149015A80F9F089A0B9914
:1039C000FCF72DFC6846818C0C98081A00D5404203
:1039D000029012AB2A4608990D9800F0F1FC12985B
:1039E000411C11D00A99081800F0A4FD014617984F
:1039F000814230D1129D7F1C2A4608990B9800F015
:103A0000BCFC040003D040E03124E4433DE03046F8
:103A10006D1C0B9900F079FE040036D109A93046DF
:103A200000F026FE040030D16846818C0C98081AFC
:103A300000D540420C9A914210D9029988420AD985
:103A400015A9304600F061FE044615A9089A0B98A6
:103A5000FCF7E5FB7F1E002C07D016E0029015A8AE
:103A6000089A0B99FCF7DBFBB3E7199807601A99E2
:103A700014980870139801214175199813990078CA
:103A8000C8741A9801781398017520461BB0F0BDD0
:103A900010B50446012001430A4600212046FEF7E6
:103AA000E9FE00280FD12046FFF75CFE00280AD16E
:103AB00000212046FEF76EF8002804D100221146AE
:103AC0002046FEF7D7FE10BDFFB585B0002668463C
:103AD0000674059D1F46FF3521353446002B00D066
:103AE0002E7C012211460598FEF7C4FE002808D15D
:103AF00040210598FFF7CCFF002802D10799012942
:103B00000FD006990C70002809D1002F07D032463B
:103B100001210598FEF7AEFE002800D12E7409B0F1
:103B2000F0BD069804AB2246012101930090039456
:103B300002911346059800F001F8E4E7FFB581B063
:103B40000F46002069460C9E0D9D08700122FF2142
:103B50000198FEF78FFE0446002211460198FEF7F9
:103B600089FE04430022FF210198FEF783FE0443EF
:103B7000002F0FD0002E05D0CB210A9A0198FEF716
:103B800040FB0443002D16D06A46EE210198FEF753
:103B900038FB0FE0002E05D0CB21039A0198FEF7E9
:103BA00069FE0443002D06D08022EE21049B01987B
:103BB000FEF74CFE04430122FF210198FEF75AFE56
:103BC0000443012200210198FEF754FE0443002221
:103BD000FF210198FEF74EFE694609782043EF2247
:103BE00011400B9A117005B0F0BD0000F3B57D20B7
:103BF0008BB000010290344801903348A526643010
:103C000009903148032528380390002007902F4859
:103C1000B600ED430F46814254D32D4804A93C1A07
:103C20000B98FEF73FFA00284AD16946097C002923
:103C300007D16946497C002903D16946897C00295E
:103C400022D002AA02210B9800F0ECFB002837D109
:103C50006946097C002905D0029A01995118A142B0
:103C600030D2641A6946897C002904D0029A0999E5
:103C70005118490005E06946497C002904D0029AA0
:103C80009119A1421ED2641A6946C97C00290BD041
:103C900007AA03210B9800F0C5FB07998919A142D7
:103CA00010D2641A00280BD16946097D002907D07B
:103CB00003980421221A0B9800F02EFD0B994F61F6
:103CC0000DB0F0BD2846FBE74E020000204E00007C
:103CD000360B0000F7B5044686B02C200090002576
:103CE000B42606270122FF212046FEF7C3FD002847
:103CF00019D100224F212046FEF7BCFD002812D129
:103D00002C224E212046FEF7B5FD00280BD10022C3
:103D1000FF212046FEF7AEFD002804D13246B62131
:103D20002046FEF7A7FD002001462218FF3221326F
:103D3000401C1171B842F8D30898002801D108E05E
:103D40006D1C701900F0F6FB002802D10098854226
:103D5000F6D30798234605A9FF3303902533049132
:103D60009A1D0097019602952046089900F0BDFA29
:103D7000002807D10121FF34013461750799E174EE
:103D80000899217509B0F0BDF0B587B00E46074619
:103D9000002069460876924D1446D0077ED1002E49
:103DA00002D0012E0DD0C6E00C2C77D3122C75D882
:103DB0000C2C13D00E2C13D0102C13D0122C13D08B
:103DC000B9E0082CF1D30E2CF1D8082C17D00A2C0E
:103DD0003CD00C2C50D00E2C76D0ACE0182204E055
:103DE000302202E0402200E0502257213846FEF700
:103DF00041FD082256213846FEF73CFD99E010228D
:103E000048213846FEF736FD082247213846FEF79E
:103E100031FD0090022232213846FEF72BFD01468B
:103E200000980C220143009130213846FEF722FD14
:103E30000099012208430090FF213846FEF71AFD41
:103E40000146009801433022009163E02822482176
:103E50003846FEF70FFD082247213846FEF70AFDD7
:103E60000090032232213846FEF704FD01460098F7
:103E700001430922009116E0382248213846FEF716
:103E8000F9FC082247213846FEF7F4FC0090032293
:103E900032213846FEF7EEFC014600E056E000987D
:103EA00001430822009130213846FEF7E3FC0099D7
:103EB000012208430090FF213846FEF7DBFC014653
:103EC0000098014324E0FFE7482211463846FEF7F8
:103ED000D1FC082247213846FEF7CCFC0090032293
:103EE00032213846FEF7C6FC0099072208430090AD
:103EF00030213846FEF7BEFC02460098FF210243FF
:103F0000009201223846FEF7B5FC009A01461143A3
:103F10002022009130213846FEF7ACFC00990022A7
:103F200008430090FF213846FEF7A4FC01460098A4
:103F3000084300280BD12046FEF71EFF31463E46BF
:103F4000E0360290002904D0012925D0284607B088
:103F5000F0BD04AA0321384600F064FA002819D104
:103F600005AA0221384600F05DFA002812D150213E
:103F70003846029AFEF77EFC00280BD10321384612
:103F8000049A00F0C9FB002804D102213846059AA2
:103F900000F0C2FB347213E003AA0421384600F09B
:103FA00041FA00280BD170213846029AFEF762FCD4
:103FB000002804D104213846039A00F0ADFB347088
:103FC0000028C4D138467969FEF7BFFA0028BED16F
:103FD0000123002206A93846FFF7DFFBB7E7000000
:103FE000FCFFFFFFF8B505460446FF35FF304135BD
:103FF0000130298D406E0122FCF772FA2E7F52208B
:1040000028772046FDF7ECFD31462046FEF76FF994
:104010002E7730492046FDF7A7FE2046FEF75EFBCF
:104020002546FF356135A87B00906B7B2A7BE97ABA
:10403000204600F06DFA284A2046111DFEF7A7F829
:10404000254A2046921C511EFEF79CF8A87A0122B0
:104050009203012804D002280ED0032834D11AE09C
:1040600001212046FEF748FA092252040021204689
:10407000FEF742FA19490AE001212046FEF73CFA10
:104080000122520500212046FEF736FA1449204647
:10409000FEF75BFA18E0134A01212046FEF72CFADE
:1040A0000F22920400212046FEF726FA0E492046F0
:1040B000FEF74BFA122200212046FEF79BFA0E2251
:1040C00001212046FEF796FA00212046FEF715F959
:1040D000F8BD00000C030020BC020020400D0300CE
:1040E000204E000099190000E880000038B50C4609
:1040F00011460A310091FF215D31095C93B2012222
:10410000FF3011430130006E2246FCF799FA38BDAA
:1041100038B513460A33009393B2FF225D32145C24
:10412000FF3001300A46006E2146FCF711FB38BD16
:104130000FB410B504A9074B02AA039800F028F8A1
:10414000044602A9002000F0CBF8204610BC08BCB1
:1041500004B01847E142000830B47446641E257864
:10416000641CAB4200D21D46635D5B00E31830BCAB
:10417000184702E008C8121F08C1002AFAD1704788
:104180007047002001E001C1121F002AFBD17047D7
:10419000FFB58DB00446002506E025280AD0109A08
:1041A0000F999047641C6D1C20780028F5D1284693
:1041B00011B0F0BD00270121484A009700E00743F5
:1041C000641C23780846203B98401042F7D12078A1
:1041D0002E2817D1042007436078641C2A280CD1AC
:1041E0000E98641C02C800910E900BE000990A2200
:1041F000514330394018641C009020780146303912
:104200000929F3D920780028D1D0642808D069285A
:1042100006D075281ED0109A0F9990476D1C5BE050
:104220000A200E99019001C90E91002802DA40423D
:104230002D2102E0390504D52B216A461172012196
:1042400003E0F90704D02021F7E70BAE0B910DE056
:104250000021FAE70A200E99019001C90E91F7E7B3
:104260000199FBF745FF3031761E31700028F7D1F8
:1042700003A8801B20300190780701D5009801E049
:10428000012000900199884201DD401A00E00020E1
:104290000027009006E002A8109AC05D0F99904791
:1042A0006D1C7F1C0B988742F5DB04E0109A3020D0
:1042B0000F9990476D1C0099481E00900029F5DC6D
:1042C00005E03078109A761C0F9990476D1C019983
:1042D000481E01900029F4DC641C65E709280100F0
:1042E0000A68531C0B6010707047FFB583B0002440
:1042F0000E9D109F264600951CE06B462A460C99A1
:10430000059800F05DF80098411C07D00D99081839
:1043100000F010F901460498814203D03124E443AF
:104320003D6027E0009D0C992A46069800F025F88C
:104330006D1C761C0F988642DFD33D60002C19D18E
:104340000699039800F0E1F9040013D101A903983C
:1043500000F061F80446002001A908E0069A0B5C11
:10436000125C9A4202D03124E44303E0401C0C9AD0
:104370009042F3D3204607B0F0BDF8B50F4606468D
:1043800000250821D4081046FBF7B2FEBC4202D338
:104390003125ED4304E0305D01228A401043305561
:1043A0002846F8BD10B50446FDF7F5FE0349204642
:1043B000FDF7DEFD0148008910BD000070030020FC
:1043C000FFB5002681B0701E082518601F46D4086E
:1043D00029461046FBF78CFE8C46214614E0019AD4
:1043E0000020525CA14202D16046C24009E0D307DE
:1043F00005D00A4601266A431018386003E05208C7
:10440000401CA842F3D3491C0298814201D2002EDD
:10441000E5D005B0F0BD10B50A460623B021FDF782
:104420004DFF10BDF7B500248AB017466A461475D3
:10443000254694832646002908D0012906D0022962
:1044400004D0032911D0042927D05DE000210A9867
:10445000FDF761FE040005D105AA46210A98FDF783
:10446000D0FE04466846007D14E000210A98FDF75E
:1044700052FE040048D16A4600210A98FDF74BFE1F
:10448000040005D107AA51210A98FDF7F7FE04465A
:104490006846808BFEF733FC2FE003A90A98FDF7EE
:1044A00001FE6846C07B0025002813D06A46002123
:1044B0000A98FDF730FE04001ED107AA51210A9880
:1044C000FDF7DCFE04466846808BFEF718FC85B2DB
:1044D000002C11D16A4601210A98FDF71CFE040048
:1044E0000AD108AA71210A98FDF7C8FE0446684659
:1044F000008CFEF704FC86B2701B81B2684602781D
:104500000A98FEF7CBFB05463D6020460DB0F0BD96
:10451000F8B51C4600920B4600220646069D114641
:10452000FDF7FEFE2B04220400213046FDF793FF29
:10453000F8BD000001468909034A8900515801204D
:10454000002900D100207047AC0200200EB5FCF716
:10455000BDF9FDF7A3F8FDF70FF8FDF73FF8FDF7FC
:104560005BF833A16846FFF7E3FD6846FBF77BFE87
:1045700082B2334B69463348FCF782FE324D00224B
:1045800004212846FBF7ACFF002208212846FBF750
:10459000A7FFFF262D489136C68301244477542176
:1045A0000177284F01464C3F403908220F660285AB
:1045B0004D660221203081720021C172C8214173F1
:1045C0000473FF386138FFF70DFD21485821C68379
:1045D000447701770146403904220F6602854D6613
:1045E0000221203081720321C17250214173C82100
:1045F00081730473FF386138FFF7F4FC104D1348E2
:104600003030FFF7CFFE04460E488030FFF7CAFE79
:10461000024623460FA16846FFF78AFD6846FBF76E
:1046200022FE82B22B4669460648FCF729FEE6E7E1
:104630005541525420696E69742E2E0A0000000004
:10464000FFFF0000D803002000080050980500205C
:10465000080700202D2D2D2D2D206D6D3A2025646D
:10466000202D2D2D2D2D206D6D3A2025640A000062
:10467000F0B50446FF340F46213487B00546267C4A
:10468000C0220121FEF7F6F8002822D1694628460B
:10469000FDF798FD00281CD10122FF212846FEF7D6
:1046A000E9F8002815D13A46B6212846FDF7E6FD7F
:1046B00000280ED10022FF212846FEF7DBF8002853
:1046C00007D1324601212846FEF7D4F8002800D150
:1046D000267407B0F0BD10B500201C4618700B0002
:1046E000FFF73AFD050406090B0D1000D10600E0A6
:1046F0001107C90F04E05107FBE75106F9E7D1099B
:10470000217010BD0320C04310BD10B50A4606231A
:10471000B021FEF7D9F810BDF7B588B0089E17464E
:10472000C03600290ED001290CD002290AD0089DDC
:104730008035032923D004293ED00324E4432046B6
:104740000BB0F0BD05AA00210898FDF7E4FC0400B9
:10475000F5D16846027D39460898FEF78BFAFF21AD
:1047600080B20131884201D9FF2201E0401EC2B26D
:10477000328346210898FEF77DF80446DFE705AA54
:1047800000210898FDF7C7FC694604460A7D3946B2
:104790000898FEF76FFA80B2FEF7DDFA69460881E5
:1047A00002463083002CCAD151210898FEF776F8D2
:1047B0000400C4D16F66C2E703A90898FDF772FC34
:1047C0006846C07B0026002813D005AA002108985F
:1047D000FDF7A1FC0400B2D102AA51210898FDF70F
:1047E0004DFD044668460089FEF789FA86B2002C22
:1047F000A5D105AA01210898FDF78DFC04009ED1E2
:104800006846027D39460898FEF734FA8019FEF7AB
:10481000A2FA024671210898FEF740F804008ED1F2
:10482000EF658CE7000000000000000001020304B7
:1048300006070809030406080C10182030000000C1
:104840000001020304000000684800080000002086
:10485000CC020000EC020008F44A0008CC02002060
:104860006C09000082410008101B01FF01010000DB
:1048700001FF0001090001100001110001240101E4
:1048800025FF017515200B01014E2C014800013058
:104890002021203630090154000131040132030186
:1048A00040830146250160000127000150060151A7
:1048B0000001529601560801573001610001620063
:1048C0000164000165000166A045300B22320147FA
:1048D000140149FF014A6920097A0A017B00017825
:1048E0002160201B23340142000144FF01452601C1
:1048F0004605014040010E0601201A0143402A20CE
:1049000006340301354487117520094B09014C0514
:10491000014D0442301D4400014520014708014873
:10492000280167000170040171010172FE01760027
:104930000177B7230D0169200680010101F8C61235
:104940008EE44112430000ED111B51F91067010183
:104950004F0201FF0E01000301018401020A01035D
:10496000030104080105C801060301078D010808B9
:104970000109C6010A01010B02010C00010DD5015C
:104980000E18010F12011001011182011200011312
:10499000D501141801151301160301178601180A11
:1049A000011909011A08011BC2011C03011D8F0115
:1049B0001E0A011FD5143101012102012200012329
:1049C000D501241801252201260101278201280092
:1049D0000129D5012A18012B0B012C28012D780162
:1049E0002E28012F9101306B34380B013200013336
:1049F0000B0134000135A10136000137A001380058
:104A0000013904013A28013B30013C0C013D04010D
:104A10003E0F013F7901402801411E01422F014311
:104A2000872024080B01460001470BBF2749A77ABE
:104A300024064BA6014C0041124EF315B6242F005C
:104A4000015180015209015308015401015500012F
:104A5000560F015779015809015905015A00015BA8
:104A600060015C05015DD1015E0C015F3CEC142C22
:104A700061D001620B0163030164280165100166C6
:104A80002A01673901680B016902016A28016B106C
:104A9000016C2A016D61016E0C016F9534110F01DB
:104AA000717901720001730B01740001750B9E1482
:104AB0000DA10178000179A0017A00017BCB441F90
:104AC0000401791D017B2701960E0197FE019803D1
:104AD0000199EF019A02019B440173070170A4251B
:104AE000B94101120A0452050C610881010300203A
:044AF00000000000C2
:04000005080000C12E
:00000001FF
